:020000020000FC
:0200000055C0E9
:1000AC0000E10EBF0FEF0DBF222410D0000089D04D
:1000BC00000021D000009AD0000032D00000ABD05C
:1000CC0000004BD00000C4D00000FFCF0F92E0ED39
:1000DC00F2E0C0E1D1E0C89509923196C89508824A
:1000EC00E2EDF2E0C2E1D1E0C89509923196C895F3
:1000FC0008820F9008950F92E4EDF2E0C0E3D1E096
:10010C00C89509923196C8950882E6EDF2E0C2E3F3
:10011C00D1E0C89509923196C89508820F90089540
:10012C000F92E8EDF2E0C0E5D1E0C8950992319666
:10013C00C8950992EAEDF2E0C8950882ECEDF2E080
:10014C00C3E5D1E0C89509923196C8950992EEEDB8
:10015C00F2E0C89508820F900895E0EEF2E0C0E35B
:10016C00D1E0C89509923196C8950882E2EEF2E08A
:10017C00C2E3D1E0C89509923196C895088236D071
:10018C00E4EEF2E0C0E1D1E0C89509923196C89551
:10019C000882A0E4B1E0C2E1D1E00D9109930C9189
:1001AC0008830FD0A0E2B1E0C0E5D1E0E3E5F1E0D7
:1001BC000D91099301930D91099301930C9108836F
:1001CC0000830F933F93A0E1B1E0C2E1D1E0E0E204
:1001DC00F1E00D913991300F31930C913881301F32
:1001EC00319308F4B0833F910F9108950F933F938F
:1001FC00A0E3B1E0C2E3D1E0E0E4F1E00D9139918C
:10020C00301B31930C913881300B319308F4B0834F
:10021C003F910F9108952224A0E5B1E0C3E5D1E010
:10022C00E0E6F1E013E023E03D904880349C31900F
:10023C004190030C141C3080321C308212920292BA
:10024C0031962A9589F7319721961A9561F7089579
:10025C00E2DF08953F924F921F920F922F92BF931D
:10026C00AF93DF93CF93FF93EF931F932F9322249E
:10027C00C2E0D1E0E4E0F1E012E0A0E0B1E022E085
:10028C003D904880349C31904190030C141C30807C
:10029C00321C30821292029231962A9589F731974C
:1002AC0021961A9551F72F911F91EF91FF91CF91B4
:1002BC00DF91AF91BF912F900F901F904F903F9077
:1002CC0008950895BAFCFFFFB9FC20E4FFFFFF007E
:0A02DC00FFFFFF00BAFC2220BB2147
:00000001FF
