:020000020000FC
:0200000055C0E9
:1000AC0000E10EBF0FEF0DBF222410D0000089D04D
:1000BC00000021D000009AD0000032D00000ABD05C
:1000CC0000004BD00000C8D00000FFCF0F92E8ED2D
:1000DC00F2E0C0E1D1E0C89509923196C89508824A
:1000EC00EAEDF2E0C2E1D1E0C89509923196C895EB
:1000FC0008820F9008950F92ECEDF2E0C0E3D1E08E
:10010C00C89509923196C8950882EEEDF2E0C2E3EB
:10011C00D1E0C89509923196C89508820F90089540
:10012C000F92E0EEF2E0C0E5D1E0C895099231966D
:10013C00C8950992E2EEF2E0C8950882E4EEF2E08E
:10014C00C3E5D1E0C89509923196C8950992E6EEBF
:10015C00F2E0C89508820F900895E8EEF2E0C0E353
:10016C00D1E0C89509923196C8950882EAEEF2E082
:10017C00C2E3D1E0C89509923196C895088236D071
:10018C00ECEEF2E0C0E1D1E0C89509923196C89549
:10019C000882A0E4B1E0C2E1D1E00D9109930C9189
:1001AC0008830FD0A0E2B1E0C0E5D1E0E3E5F1E0D7
:1001BC000D91099301930D91099301930C9108836F
:1001CC0000830F933F93A0E1B1E0C2E1D1E0E0E204
:1001DC00F1E00D913991300F31930C913881301F32
:1001EC00319308F4B0833F910F9108950F933F938F
:1001FC00A0E3B1E0C2E3D1E0E0E4F1E00D9139918C
:10020C00301B31930C913881300B319308F4B0834F
:10021C003F910F9108952224A0E5B1E0C3E5D1E010
:10022C00E0E6F1E013E023E03D904880349C31900F
:10023C004190030C141C3190321C4080421C4082B3
:10024C0032921292029231962A9571F73297139745
:10025C0021961A9541F70895DEDF08953F924F924B
:10026C001F920F922F92BF93AF93DF93CF93FF9375
:10027C00EF931F932F932224C2E0D1E0E4E0F1E04E
:10028C0012E0A0E0B1E022E03D904880349C319037
:10029C004190030C141C3080321C3082129202925A
:1002AC0031962A9589F7319721961A9551F72F9106
:1002BC001F91EF91FF91CF91DF91AF91BF912F9053
:1002CC000F901F904F903F9008950895BAFCFFFF38
:1002DC00B9FC20E4FFFFFF00FFFFFF00BAFC222067
:0202EC00BB2134
:00000001FF
