:020000020000FC
:0200000055C0E9
:1000AC0000E10EBF0FEF0DBF22240AD000002CD0B0
:1000BC000000000000000000000000000000FFCF66
:1000CC00ECECF1E0C0E1D1E0C89509923196C8950D
:1000DC000882EEECF1E0C2E1D1E0C89509923196CC
:1000EC00C89508820895A8EEB0E0C9EED0E0E0E330
:1000FC00F1E00D9101930C910083E2E3F1E00991A1
:10010C000193088100830895A0E1B1E0C2E1D1E040
:10011C00E0E2F1E00D911991100F11930C911881FF
:10012C00101F119308F4B0830895A0E3B1E0C2E36B
:10013C00D1E0E0E4F1E00D911991101B11930C91B9
:10014C001881100B119308F4B08308950895089545
:10015C003F924F921F920F922F92BF93AF93DF93C8
:10016C00CF93FF93EF931F932F932224C2E0D1E000
:10017C00E4E0F1E012E0A0E0B1E022E03D90488044
:10018C00349C31904190030C141C3080321C308212
:10019C001292029231962A9589F7319721961A95E7
:1001AC0051F72F911F91EF91FF91CF91DF91AF916B
:1001BC00BF912F900F901F904F903F9008950895EE
:1001CC00BAFCFFFFB9FC20E4FFFFFF00FFFFFF00BC
:0601DC00BAFC2220BB2149
:00000001FF
