:020000020000FC
:0200000055C0E9
:1000AC0000E10EBF0FEF0DBF222410D0000089D04D
:1000BC00000021D00000A0D0000032D00000B0D051
:1000CC0000004BD00000ECD00000FFCF0F92E0E21C
:1000DC00F3E0C0E1D1E0C89509923196C895088249
:1000EC00E2E2F3E0C2E1D1E0C89509923196C895FD
:1000FC0008820F9008950F92E4E2F3E0C0E3D1E0A0
:10010C00C89509923196C8950882E6E2F3E0C2E3FD
:10011C00D1E0C89509923196C89508820F90089540
:10012C000F92E8E2F3E0C0E5D1E0C8950992319670
:10013C00C8950992EAE2F3E0C8950882ECE2F3E094
:10014C00C3E5D1E0C89509923196C8950992EEE2C3
:10015C00F3E0C89508820F900895E0E3F3E0C0E364
:10016C00D1E0C89509923196C8950882E2E3F3E094
:10017C00C2E3D1E0C89509923196C89508823CD06B
:10018C00E4E3F3E0C0E1D1E0C89509923196C8955B
:10019C000882A0E4B1E0C2E1D1E00D9109930C9189
:1001AC0008830FD0A0E2B1E0C0E5D1E0E3E5F1E0D7
:1001BC000D91099301930D91099301930C9108836F
:1001CC0000830F933F932224A0E1B1E0C2E1D1E080
:1001DC00E0E2F1E003E021920A95E9F733970D9103
:1001EC003991300F31930C913881301F319308F4D1
:1001FC00B0833F910F9108950F933F93A0E3B1E02B
:10020C00C2E3D1E0E0E4F1E00D913991031B0193DD
:10021C000C913881030B019300F43F910F910895D9
:10022C003F924F921F920F922F92BF93AF93DF93F7
:10023C00CF93FF93EF931F932F932224A0E5B1E06C
:10024C00C3E5D1E0E0E6F1E006E021920A95E9F79A
:10025C00369713E023E03D904880349C31904190D8
:10026C00030C141C3190321C4080421C4082329290
:10027C001292029231962A9571F732971397219622
:10028C001A9541F72F911F91EF91FF91CF91DF912B
:10029C00AF91BF912F900F901F904F903F9008956A
:1002AC00BFDF08953F924F921F920F922F92BF93F0
:1002BC00AF93DF93CF93FF93EF931F932F9322244E
:1002CC00C2E0D1E0E4E0F1E012E0A0E0B1E022E035
:1002DC003D904880349C31904190030C141C30802C
:1002EC00321C30821292029231962A9589F73197FC
:1002FC0021961A9551F72F911F91EF91FF91CF9164
:10030C00DF91AF91BF912F900F901F904F903F9026
:10031C0008950895BAFCFFFFB9FC20E4FFFFFF002D
:0A032C00FFFFFF00BAFC2220BB21F6
:00000001FF
