:020000020000FC
:0200000055C0E9
:1000AC0000E10EBF0FEF0DBF222410D0000089D04D
:1000BC00000021D000009AD0000032D00000AAD05D
:1000CC0000004BD00000E6D00000FFCF0F92E4E11F
:1000DC00F3E0C0E1D1E0C89509923196C895088249
:1000EC00E6E1F3E0C2E1D1E0C89509923196C895FA
:1000FC0008820F9008950F92E8E1F3E0C0E3D1E09D
:10010C00C89509923196C8950882EAE1F3E0C2E3FA
:10011C00D1E0C89509923196C89508820F90089540
:10012C000F92ECE1F3E0C0E5D1E0C895099231966D
:10013C00C8950992EEE1F3E0C8950882E0E2F3E09D
:10014C00C3E5D1E0C89509923196C8950992E2E2CF
:10015C00F3E0C89508820F900895E4E2F3E0C0E361
:10016C00D1E0C89509923196C8950882E6E2F3E091
:10017C00C2E3D1E0C89509923196C895088236D071
:10018C00E8E2F3E0C0E1D1E0C89509923196C89558
:10019C000882A0E4B1E0C2E1D1E00D9109930C9189
:1001AC0008830FD0A0E2B1E0C0E5D1E0E3E5F1E0D7
:1001BC000D91099301930D91099301930C9108836F
:1001CC0000830F933F93A0E1B1E0C2E1D1E0E0E204
:1001DC00F1E00D913991300F31930C913881301F32
:1001EC00319308F4BC933F910F9108950F933F9373
:1001FC00A0E3B1E0C2E3D1E0E0E4F1E00D9139918C
:10020C00031B01930C913881030B019300F43F9174
:10021C000F9108953F924F921F920F922F92BF937E
:10022C00AF93DF93CF93FF93EF931F932F932224DE
:10023C00A0E5B1E0C3E5D1E0E0E6F1E006E0219213
:10024C000A95E9F7369713E023E03D904880349CFB
:10025C0031904190030C141C3190321C4080421C94
:10026C00408232921292029231962A9571F732970D
:10027C00139721961A9541F72F911F91EF91FF91AA
:10028C00CF91DF91AF91BF912F900F901F904F9016
:10029C003F900895BFDF08953F924F921F920F92A7
:1002AC002F92BF93AF93DF93CF93FF93EF931F9353
:1002BC002F932224C2E0D1E0E4E0F1E012E0A0E0D0
:1002CC00B1E022E03D904880349C31904190030C89
:1002DC00141C3080321C30821292029231962A9574
:1002EC0089F7319721961A9551F72F911F91EF911C
:1002FC00FF91CF91DF91AF91BF912F900F901F90F5
:10030C004F903F9008950895BAFCFFFFB9FC20E48C
:0E031C00FFFFFF00FFFFFF00BAFC2220BB2105
:00000001FF
