:020000020000FC
:0200000055C0E9
:1000AC0000E10EBF0FEF0DBF22240DD0000052D087
:1000BC0000001ED0000063D000002FD00000000014
:1000CC0000000000FFCF0F92E0E9F2E0C0E1D1E0C8
:1000DC00C89509923196C8950882E2E9F2E0C2E12E
:1000EC00D1E0C89509923196C89508820F90089571
:1000FC000F92E4E9F2E0C0E3D1E0C89509923196A1
:10010C00C8950882E6E9F2E0C2E3D1E0C89509920D
:10011C003196C89508820F9008950F92E8E9F2E0A5
:10012C00C0E5D1E0C89509923196C8950992EAE9E3
:10013C00F2E0C8950882ECE9F2E0C3E5D1E0C8959D
:10014C0009923196C8950992EEE9F2E0C8950882B9
:10015C000F9008950F933F93A0E1B1E0C2E1D1E07D
:10016C00E0E2F1E00D913991300F31930C9138812F
:10017C00301F319308F4B0833F910F9108950F9382
:10018C003F93A0E3B1E0C2E3D1E0E0E4F1E00D91F4
:10019C003991301B31930C913881300B319308F429
:1001AC00B0833F910F9108950895E0EAF2E0C0E327
:1001BC00D1E0C89509923196C8950882E2EAF2E03E
:1001CC00C2E3D1E0C89509923196C8950882D7DF71
:1001DC00E4EAF2E0C0E1D1E0C89509923196C89505
:1001EC000882A0E4B1E0C2E1D1E00D9109930C9139
:1001FC000883B0DFA0E2B1E0C0E5D1E0E3E5F1E0D7
:10020C000D91099301930D91099301930C9108831E
:10021C00008308953F924F921F920F922F92BF939B
:10022C00AF93DF93CF93FF93EF931F932F932224DE
:10023C00C2E0D1E0E4E0F1E012E0A0E0B1E022E0C5
:10024C003D904880349C31904190030C141C3080BC
:10025C00321C30821292029231962A9589F731978C
:10026C0021961A9551F72F911F91EF91FF91CF91F4
:10027C00DF91AF91BF912F900F901F904F903F90B7
:10028C0008950895BAFCFFFFB9FC20E4FFFFFF00BE
:0A029C00FFFFFF00BAFC2220BB2187
:00000001FF
